{
  "_format": "hh-sol-artifact-1",
  "contractName": "ContributionAccountingToken",
  "sourceName": "contracts/ContributionAccountingToken.sol",
  "abi": [
    {
      "inputs": [
        {
          "internalType": "address",
          "name": "defaultAdmin",
          "type": "address"
        },
        {
          "internalType": "uint256",
          "name": "_maxSupply",
          "type": "uint256"
        },
        {
          "internalType": "uint256",
          "name": "_thresholdSupply",
          "type": "uint256"
        },
        {
          "internalType": "uint256",
          "name": "_maxExpansionRate",
          "type": "uint256"
        },
        {
          "internalType": "string",
          "name": "_name",
          "type": "string"
        },
        {
          "internalType": "string",
          "name": "_symbol",
          "type": "string"
        }
      ],
      "stateMutability": "nonpayable",
      "type": "constructor"
    },
    {
      "inputs": [],
      "name": "AccessControlBadConfirmation",
      "type": "error"
    },
    {
      "inputs": [
        {
          "internalType": "address",
          "name": "account",
          "type": "address"
        },
        {
          "internalType": "bytes32",
          "name": "neededRole",
          "type": "bytes32"
        }
      ],
      "name": "AccessControlUnauthorizedAccount",
      "type": "error"
    },
    {
      "inputs": [],
      "name": "ECDSAInvalidSignature",
      "type": "error"
    },
    {
      "inputs": [
        {
          "internalType": "uint256",
          "name": "length",
          "type": "uint256"
        }
      ],
      "name": "ECDSAInvalidSignatureLength",
      "type": "error"
    },
    {
      "inputs": [
        {
          "internalType": "bytes32",
          "name": "s",
          "type": "bytes32"
        }
      ],
      "name": "ECDSAInvalidSignatureS",
      "type": "error"
    },
    {
      "inputs": [
        {
          "internalType": "address",
          "name": "spender",
          "type": "address"
        },
        {
          "internalType": "uint256",
          "name": "allowance",
          "type": "uint256"
        },
        {
          "internalType": "uint256",
          "name": "needed",
          "type": "uint256"
        }
      ],
      "name": "ERC20InsufficientAllowance",
      "type": "error"
    },
    {
      "inputs": [
        {
          "internalType": "address",
          "name": "sender",
          "type": "address"
        },
        {
          "internalType": "uint256",
          "name": "balance",
          "type": "uint256"
        },
        {
          "internalType": "uint256",
          "name": "needed",
          "type": "uint256"
        }
      ],
      "name": "ERC20InsufficientBalance",
      "type": "error"
    },
    {
      "inputs": [
        {
          "internalType": "address",
          "name": "approver",
          "type": "address"
        }
      ],
      "name": "ERC20InvalidApprover",
      "type": "error"
    },
    {
      "inputs": [
        {
          "internalType": "address",
          "name": "receiver",
          "type": "address"
        }
      ],
      "name": "ERC20InvalidReceiver",
      "type": "error"
    },
    {
      "inputs": [
        {
          "internalType": "address",
          "name": "sender",
          "type": "address"
        }
      ],
      "name": "ERC20InvalidSender",
      "type": "error"
    },
    {
      "inputs": [
        {
          "internalType": "address",
          "name": "spender",
          "type": "address"
        }
      ],
      "name": "ERC20InvalidSpender",
      "type": "error"
    },
    {
      "inputs": [
        {
          "internalType": "uint256",
          "name": "deadline",
          "type": "uint256"
        }
      ],
      "name": "ERC2612ExpiredSignature",
      "type": "error"
    },
    {
      "inputs": [
        {
          "internalType": "address",
          "name": "signer",
          "type": "address"
        },
        {
          "internalType": "address",
          "name": "owner",
          "type": "address"
        }
      ],
      "name": "ERC2612InvalidSigner",
      "type": "error"
    },
    {
      "inputs": [
        {
          "internalType": "address",
          "name": "account",
          "type": "address"
        },
        {
          "internalType": "uint256",
          "name": "currentNonce",
          "type": "uint256"
        }
      ],
      "name": "InvalidAccountNonce",
      "type": "error"
    },
    {
      "inputs": [],
      "name": "InvalidShortString",
      "type": "error"
    },
    {
      "inputs": [
        {
          "internalType": "string",
          "name": "str",
          "type": "string"
        }
      ],
      "name": "StringTooLong",
      "type": "error"
    },
    {
      "anonymous": false,
      "inputs": [
        {
          "indexed": true,
          "internalType": "address",
          "name": "owner",
          "type": "address"
        },
        {
          "indexed": true,
          "internalType": "address",
          "name": "spender",
          "type": "address"
        },
        {
          "indexed": false,
          "internalType": "uint256",
          "name": "value",
          "type": "uint256"
        }
      ],
      "name": "Approval",
      "type": "event"
    },
    {
      "anonymous": false,
      "inputs": [],
      "name": "EIP712DomainChanged",
      "type": "event"
    },
    {
      "anonymous": false,
      "inputs": [
        {
          "indexed": true,
          "internalType": "bytes32",
          "name": "role",
          "type": "bytes32"
        },
        {
          "indexed": true,
          "internalType": "bytes32",
          "name": "previousAdminRole",
          "type": "bytes32"
        },
        {
          "indexed": true,
          "internalType": "bytes32",
          "name": "newAdminRole",
          "type": "bytes32"
        }
      ],
      "name": "RoleAdminChanged",
      "type": "event"
    },
    {
      "anonymous": false,
      "inputs": [
        {
          "indexed": true,
          "internalType": "bytes32",
          "name": "role",
          "type": "bytes32"
        },
        {
          "indexed": true,
          "internalType": "address",
          "name": "account",
          "type": "address"
        },
        {
          "indexed": true,
          "internalType": "address",
          "name": "sender",
          "type": "address"
        }
      ],
      "name": "RoleGranted",
      "type": "event"
    },
    {
      "anonymous": false,
      "inputs": [
        {
          "indexed": true,
          "internalType": "bytes32",
          "name": "role",
          "type": "bytes32"
        },
        {
          "indexed": true,
          "internalType": "address",
          "name": "account",
          "type": "address"
        },
        {
          "indexed": true,
          "internalType": "address",
          "name": "sender",
          "type": "address"
        }
      ],
      "name": "RoleRevoked",
      "type": "event"
    },
    {
      "anonymous": false,
      "inputs": [
        {
          "indexed": true,
          "internalType": "address",
          "name": "from",
          "type": "address"
        },
        {
          "indexed": true,
          "internalType": "address",
          "name": "to",
          "type": "address"
        },
        {
          "indexed": false,
          "internalType": "uint256",
          "name": "value",
          "type": "uint256"
        }
      ],
      "name": "Transfer",
      "type": "event"
    },
    {
      "inputs": [],
      "name": "ADMIN_ROLE",
      "outputs": [
        {
          "internalType": "bytes32",
          "name": "",
          "type": "bytes32"
        }
      ],
      "stateMutability": "view",
      "type": "function"
    },
    {
      "inputs": [],
      "name": "DEFAULT_ADMIN_ROLE",
      "outputs": [
        {
          "internalType": "bytes32",
          "name": "",
          "type": "bytes32"
        }
      ],
      "stateMutability": "view",
      "type": "function"
    },
    {
      "inputs": [],
      "name": "DOMAIN_SEPARATOR",
      "outputs": [
        {
          "internalType": "bytes32",
          "name": "",
          "type": "bytes32"
        }
      ],
      "stateMutability": "view",
      "type": "function"
    },
    {
      "inputs": [],
      "name": "MINTER_ROLE",
      "outputs": [
        {
          "internalType": "bytes32",
          "name": "",
          "type": "bytes32"
        }
      ],
      "stateMutability": "view",
      "type": "function"
    },
    {
      "inputs": [
        {
          "internalType": "address",
          "name": "owner",
          "type": "address"
        },
        {
          "internalType": "address",
          "name": "spender",
          "type": "address"
        }
      ],
      "name": "allowance",
      "outputs": [
        {
          "internalType": "uint256",
          "name": "",
          "type": "uint256"
        }
      ],
      "stateMutability": "view",
      "type": "function"
    },
    {
      "inputs": [
        {
          "internalType": "address",
          "name": "spender",
          "type": "address"
        },
        {
          "internalType": "uint256",
          "name": "value",
          "type": "uint256"
        }
      ],
      "name": "approve",
      "outputs": [
        {
          "internalType": "bool",
          "name": "",
          "type": "bool"
        }
      ],
      "stateMutability": "nonpayable",
      "type": "function"
    },
    {
      "inputs": [
        {
          "internalType": "address",
          "name": "account",
          "type": "address"
        }
      ],
      "name": "balanceOf",
      "outputs": [
        {
          "internalType": "uint256",
          "name": "",
          "type": "uint256"
        }
      ],
      "stateMutability": "view",
      "type": "function"
    },
    {
      "inputs": [],
      "name": "clowderFee",
      "outputs": [
        {
          "internalType": "uint256",
          "name": "",
          "type": "uint256"
        }
      ],
      "stateMutability": "view",
      "type": "function"
    },
    {
      "inputs": [],
      "name": "clowderTreasury",
      "outputs": [
        {
          "internalType": "address",
          "name": "",
          "type": "address"
        }
      ],
      "stateMutability": "view",
      "type": "function"
    },
    {
      "inputs": [],
      "name": "decimals",
      "outputs": [
        {
          "internalType": "uint8",
          "name": "",
          "type": "uint8"
        }
      ],
      "stateMutability": "view",
      "type": "function"
    },
    {
      "inputs": [],
      "name": "disableTransferRestriction",
      "outputs": [],
      "stateMutability": "nonpayable",
      "type": "function"
    },
    {
      "inputs": [],
      "name": "eip712Domain",
      "outputs": [
        {
          "internalType": "bytes1",
          "name": "fields",
          "type": "bytes1"
        },
        {
          "internalType": "string",
          "name": "name",
          "type": "string"
        },
        {
          "internalType": "string",
          "name": "version",
          "type": "string"
        },
        {
          "internalType": "uint256",
          "name": "chainId",
          "type": "uint256"
        },
        {
          "internalType": "address",
          "name": "verifyingContract",
          "type": "address"
        },
        {
          "internalType": "bytes32",
          "name": "salt",
          "type": "bytes32"
        },
        {
          "internalType": "uint256[]",
          "name": "extensions",
          "type": "uint256[]"
        }
      ],
      "stateMutability": "view",
      "type": "function"
    },
    {
      "inputs": [
        {
          "internalType": "bytes32",
          "name": "role",
          "type": "bytes32"
        }
      ],
      "name": "getRoleAdmin",
      "outputs": [
        {
          "internalType": "bytes32",
          "name": "",
          "type": "bytes32"
        }
      ],
      "stateMutability": "view",
      "type": "function"
    },
    {
      "inputs": [
        {
          "internalType": "address",
          "name": "account",
          "type": "address"
        }
      ],
      "name": "grantMinterRole",
      "outputs": [],
      "stateMutability": "nonpayable",
      "type": "function"
    },
    {
      "inputs": [
        {
          "internalType": "bytes32",
          "name": "role",
          "type": "bytes32"
        },
        {
          "internalType": "address",
          "name": "account",
          "type": "address"
        }
      ],
      "name": "grantRole",
      "outputs": [],
      "stateMutability": "nonpayable",
      "type": "function"
    },
    {
      "inputs": [
        {
          "internalType": "bytes32",
          "name": "role",
          "type": "bytes32"
        },
        {
          "internalType": "address",
          "name": "account",
          "type": "address"
        }
      ],
      "name": "hasRole",
      "outputs": [
        {
          "internalType": "bool",
          "name": "",
          "type": "bool"
        }
      ],
      "stateMutability": "view",
      "type": "function"
    },
    {
      "inputs": [],
      "name": "lastMintTimestamp",
      "outputs": [
        {
          "internalType": "uint256",
          "name": "",
          "type": "uint256"
        }
      ],
      "stateMutability": "view",
      "type": "function"
    },
    {
      "inputs": [],
      "name": "maxExpansionRate",
      "outputs": [
        {
          "internalType": "uint256",
          "name": "",
          "type": "uint256"
        }
      ],
      "stateMutability": "view",
      "type": "function"
    },
    {
      "inputs": [],
      "name": "maxSupply",
      "outputs": [
        {
          "internalType": "uint256",
          "name": "",
          "type": "uint256"
        }
      ],
      "stateMutability": "view",
      "type": "function"
    },
    {
      "inputs": [
        {
          "internalType": "address",
          "name": "to",
          "type": "address"
        },
        {
          "internalType": "uint256",
          "name": "amount",
          "type": "uint256"
        }
      ],
      "name": "mint",
      "outputs": [],
      "stateMutability": "nonpayable",
      "type": "function"
    },
    {
      "inputs": [],
      "name": "name",
      "outputs": [
        {
          "internalType": "string",
          "name": "",
          "type": "string"
        }
      ],
      "stateMutability": "view",
      "type": "function"
    },
    {
      "inputs": [
        {
          "internalType": "address",
          "name": "owner",
          "type": "address"
        }
      ],
      "name": "nonces",
      "outputs": [
        {
          "internalType": "uint256",
          "name": "",
          "type": "uint256"
        }
      ],
      "stateMutability": "view",
      "type": "function"
    },
    {
      "inputs": [
        {
          "internalType": "address",
          "name": "owner",
          "type": "address"
        },
        {
          "internalType": "address",
          "name": "spender",
          "type": "address"
        },
        {
          "internalType": "uint256",
          "name": "value",
          "type": "uint256"
        },
        {
          "internalType": "uint256",
          "name": "deadline",
          "type": "uint256"
        },
        {
          "internalType": "uint8",
          "name": "v",
          "type": "uint8"
        },
        {
          "internalType": "bytes32",
          "name": "r",
          "type": "bytes32"
        },
        {
          "internalType": "bytes32",
          "name": "s",
          "type": "bytes32"
        }
      ],
      "name": "permit",
      "outputs": [],
      "stateMutability": "nonpayable",
      "type": "function"
    },
    {
      "inputs": [
        {
          "internalType": "uint256",
          "name": "newMaxExpansionRate",
          "type": "uint256"
        }
      ],
      "name": "reduceMaxExpansionRate",
      "outputs": [],
      "stateMutability": "nonpayable",
      "type": "function"
    },
    {
      "inputs": [
        {
          "internalType": "uint256",
          "name": "newMaxSupply",
          "type": "uint256"
        }
      ],
      "name": "reduceMaxSupply",
      "outputs": [],
      "stateMutability": "nonpayable",
      "type": "function"
    },
    {
      "inputs": [
        {
          "internalType": "uint256",
          "name": "newThresholdSupply",
          "type": "uint256"
        }
      ],
      "name": "reduceThresholdSupply",
      "outputs": [],
      "stateMutability": "nonpayable",
      "type": "function"
    },
    {
      "inputs": [
        {
          "internalType": "bytes32",
          "name": "role",
          "type": "bytes32"
        },
        {
          "internalType": "address",
          "name": "callerConfirmation",
          "type": "address"
        }
      ],
      "name": "renounceRole",
      "outputs": [],
      "stateMutability": "nonpayable",
      "type": "function"
    },
    {
      "inputs": [
        {
          "internalType": "address",
          "name": "account",
          "type": "address"
        }
      ],
      "name": "revokeMinterRole",
      "outputs": [],
      "stateMutability": "nonpayable",
      "type": "function"
    },
    {
      "inputs": [
        {
          "internalType": "bytes32",
          "name": "role",
          "type": "bytes32"
        },
        {
          "internalType": "address",
          "name": "account",
          "type": "address"
        }
      ],
      "name": "revokeRole",
      "outputs": [],
      "stateMutability": "nonpayable",
      "type": "function"
    },
    {
      "inputs": [
        {
          "internalType": "bytes4",
          "name": "interfaceId",
          "type": "bytes4"
        }
      ],
      "name": "supportsInterface",
      "outputs": [
        {
          "internalType": "bool",
          "name": "",
          "type": "bool"
        }
      ],
      "stateMutability": "view",
      "type": "function"
    },
    {
      "inputs": [],
      "name": "symbol",
      "outputs": [
        {
          "internalType": "string",
          "name": "",
          "type": "string"
        }
      ],
      "stateMutability": "view",
      "type": "function"
    },
    {
      "inputs": [],
      "name": "thresholdSupply",
      "outputs": [
        {
          "internalType": "uint256",
          "name": "",
          "type": "uint256"
        }
      ],
      "stateMutability": "view",
      "type": "function"
    },
    {
      "inputs": [],
      "name": "tokenName",
      "outputs": [
        {
          "internalType": "string",
          "name": "",
          "type": "string"
        }
      ],
      "stateMutability": "view",
      "type": "function"
    },
    {
      "inputs": [],
      "name": "tokenSymbol",
      "outputs": [
        {
          "internalType": "string",
          "name": "",
          "type": "string"
        }
      ],
      "stateMutability": "view",
      "type": "function"
    },
    {
      "inputs": [],
      "name": "totalSupply",
      "outputs": [
        {
          "internalType": "uint256",
          "name": "",
          "type": "uint256"
        }
      ],
      "stateMutability": "view",
      "type": "function"
    },
    {
      "inputs": [
        {
          "internalType": "address",
          "name": "to",
          "type": "address"
        },
        {
          "internalType": "uint256",
          "name": "value",
          "type": "uint256"
        }
      ],
      "name": "transfer",
      "outputs": [
        {
          "internalType": "bool",
          "name": "",
          "type": "bool"
        }
      ],
      "stateMutability": "nonpayable",
      "type": "function"
    },
    {
      "inputs": [
        {
          "internalType": "address",
          "name": "from",
          "type": "address"
        },
        {
          "internalType": "address",
          "name": "to",
          "type": "address"
        },
        {
          "internalType": "uint256",
          "name": "value",
          "type": "uint256"
        }
      ],
      "name": "transferFrom",
      "outputs": [
        {
          "internalType": "bool",
          "name": "",
          "type": "bool"
        }
      ],
      "stateMutability": "nonpayable",
      "type": "function"
    },
    {
      "inputs": [],
      "name": "transferRestricted",
      "outputs": [
        {
          "internalType": "bool",
          "name": "",
          "type": "bool"
        }
      ],
      "stateMutability": "view",
      "type": "function"
    }
  ],
  "bytecode": "0x6101806040526001600c60006101000a81548160ff02191690831515021790555073355e559bca86346b82d58be0460d661db481e05e73ffffffffffffffffffffffffffffffffffffffff166101609073ffffffffffffffffffffffffffffffffffffffff1681525034801561007457600080fd5b50604051613cff380380613cff833981810160405281019061009691906106c0565b81806040518060400160405280600181526020017f3100000000000000000000000000000000000000000000000000000000000000815250848481600390816100df919061099c565b5080600490816100ef919061099c565b50505061010660058361022960201b90919060201c565b610120818152505061012260068261022960201b90919060201c565b6101408181525050818051906020012060e08181525050808051906020012061010081815250504660a0818152505061015f61027960201b60201c565b608081815250503073ffffffffffffffffffffffffffffffffffffffff1660c08173ffffffffffffffffffffffffffffffffffffffff16815250505050506101b06000801b876102d460201b60201c565b506101e17f9f2df0fed2c77648de5860a4cc508cd0818c85b8b8a1ab4ceeef8d981c8956a6876102d460201b60201c565b508460098190555083600a8190555082600b8190555081600e9081610206919061099c565b5080600f9081610216919061099c565b5042600d81905550505050505050610bfb565b600060208351101561024b57610244836103d260201b60201c565b9050610273565b8261025b8361043a60201b60201c565b600001908161026a919061099c565b5060ff60001b90505b92915050565b60007f8b73c3c69bb8fe3d512ecc4cf759cc79239f7b179b0ffacaa9a75d522b39400f60e0516101005146306040516020016102b9959493929190610aa5565b60405160208183030381529060405280519060200120905090565b60006102e6838361044460201b60201c565b6103c75760016008600085815260200190815260200160002060000160008473ffffffffffffffffffffffffffffffffffffffff1673ffffffffffffffffffffffffffffffffffffffff16815260200190815260200160002060006101000a81548160ff0219169083151502179055506103646104af60201b60201c565b73ffffffffffffffffffffffffffffffffffffffff168273ffffffffffffffffffffffffffffffffffffffff16847f2f8788117e7eff1d82e926ec794901d17c78024a50270940304540a733656f0d60405160405180910390a4600190506103cc565b600090505b92915050565b600080829050601f8151111561041f57826040517f305a27a90000000000000000000000000000000000000000000000000000000081526004016104169190610b42565b60405180910390fd5b80518161042b90610b94565b60001c1760001b915050919050565b6000819050919050565b60006008600084815260200190815260200160002060000160008373ffffffffffffffffffffffffffffffffffffffff1673ffffffffffffffffffffffffffffffffffffffff16815260200190815260200160002060009054906101000a900460ff16905092915050565b600033905090565b6000604051905090565b600080fd5b600080fd5b600073ffffffffffffffffffffffffffffffffffffffff82169050919050565b60006104f6826104cb565b9050919050565b610506816104eb565b811461051157600080fd5b50565b600081519050610523816104fd565b92915050565b6000819050919050565b61053c81610529565b811461054757600080fd5b50565b60008151905061055981610533565b92915050565b600080fd5b600080fd5b6000601f19601f8301169050919050565b7f4e487b7100000000000000000000000000000000000000000000000000000000600052604160045260246000fd5b6105b282610569565b810181811067ffffffffffffffff821117156105d1576105d061057a565b5b80604052505050565b60006105e46104b7565b90506105f082826105a9565b919050565b600067ffffffffffffffff8211156106105761060f61057a565b5b61061982610569565b9050602081019050919050565b60005b83811015610644578082015181840152602081019050610629565b60008484015250505050565b600061066361065e846105f5565b6105da565b90508281526020810184848401111561067f5761067e610564565b5b61068a848285610626565b509392505050565b600082601f8301126106a7576106a661055f565b5b81516106b7848260208601610650565b91505092915050565b60008060008060008060c087890312156106dd576106dc6104c1565b5b60006106eb89828a01610514565b96505060206106fc89828a0161054a565b955050604061070d89828a0161054a565b945050606061071e89828a0161054a565b935050608087015167ffffffffffffffff81111561073f5761073e6104c6565b5b61074b89828a01610692565b92505060a087015167ffffffffffffffff81111561076c5761076b6104c6565b5b61077889828a01610692565b9150509295509295509295565b600081519050919050565b7f4e487b7100000000000000000000000000000000000000000000000000000000600052602260045260246000fd5b600060028204905060018216806107d757607f821691505b6020821081036107ea576107e9610790565b5b50919050565b60008190508160005260206000209050919050565b60006020601f8301049050919050565b600082821b905092915050565b6000600883026108527fffffffffffffffffffffffffffffffffffffffffffffffffffffffffffffffff82610815565b61085c8683610815565b95508019841693508086168417925050509392505050565b6000819050919050565b600061089961089461088f84610529565b610874565b610529565b9050919050565b6000819050919050565b6108b38361087e565b6108c76108bf826108a0565b848454610822565b825550505050565b600090565b6108dc6108cf565b6108e78184846108aa565b505050565b5b8181101561090b576109006000826108d4565b6001810190506108ed565b5050565b601f82111561095057610921816107f0565b61092a84610805565b81016020851015610939578190505b61094d61094585610805565b8301826108ec565b50505b505050565b600082821c905092915050565b600061097360001984600802610955565b1980831691505092915050565b600061098c8383610962565b9150826002028217905092915050565b6109a582610785565b67ffffffffffffffff8111156109be576109bd61057a565b5b6109c882546107bf565b6109d382828561090f565b600060209050601f831160018114610a0657600084156109f4578287015190505b6109fe8582610980565b865550610a66565b601f198416610a14866107f0565b60005b82811015610a3c57848901518255600182019150602085019450602081019050610a17565b86831015610a595784890151610a55601f891682610962565b8355505b6001600288020188555050505b505050505050565b6000819050919050565b610a8181610a6e565b82525050565b610a9081610529565b82525050565b610a9f816104eb565b82525050565b600060a082019050610aba6000830188610a78565b610ac76020830187610a78565b610ad46040830186610a78565b610ae16060830185610a87565b610aee6080830184610a96565b9695505050505050565b600082825260208201905092915050565b6000610b1482610785565b610b1e8185610af8565b9350610b2e818560208601610626565b610b3781610569565b840191505092915050565b60006020820190508181036000830152610b5c8184610b09565b905092915050565b600081519050919050565b6000819050602082019050919050565b6000610b8b8251610a6e565b80915050919050565b6000610b9f82610b64565b82610ba984610b6f565b9050610bb481610b7f565b92506020821015610bf457610bef7fffffffffffffffffffffffffffffffffffffffffffffffffffffffffffffffff83602003600802610815565b831692505b5050919050565b60805160a05160c05160e05161010051610120516101405161016051613098610c6760003960008181610a640152610dbf0152600061182b015260006117f001526000611c4b01526000611c2a01526000611576015260006115cc015260006115f501526130986000f3fe608060405234801561001057600080fd5b50600436106102325760003560e01c8063735328021161013057806395d89b41116100b8578063d547741f1161007c578063d547741f14610687578063d5abeb01146106a3578063dd62ed3e146106c1578063e488ede8146106f1578063e6ad10e11461070d57610232565b806395d89b41146105e1578063a217fddf146105ff578063a9059cbb1461061d578063d505accf1461064d578063d53913931461066957610232565b806381fb8b06116100ff57806381fb8b061461054757806383de3e6a1461056557806384b0196e1461056f5780638e80ff5d1461059357806391d14854146105b157610232565b806373532802146104bf57806375b238fc146104db5780637b61c320146104f95780637ecebe001461051757610232565b80633644e515116101be57806355233b481161018257806355233b481461041957806369e2f0fb146104375780636c02a931146104535780636c8597fc1461047157806370a082311461048f57610232565b80633644e5151461038957806336568abe146103a75780633dd1eb61146103c357806340c10f19146103df57806348709a93146103fb57610232565b806318160ddd1161020557806318160ddd146102d157806323b872dd146102ef578063248a9ca31461031f5780632f2ff15d1461034f578063313ce5671461036b57610232565b806301ffc9a71461023757806306fdde03146102675780630914d4da14610285578063095ea7b3146102a1575b600080fd5b610251600480360381019061024c919061232a565b61072b565b60405161025e9190612372565b60405180910390f35b61026f6107a5565b60405161027c919061241d565b60405180910390f35b61029f600480360381019061029a9190612475565b610837565b005b6102bb60048036038101906102b69190612500565b610893565b6040516102c89190612372565b60405180910390f35b6102d96108b6565b6040516102e6919061254f565b60405180910390f35b6103096004803603810190610304919061256a565b6108c0565b6040516103169190612372565b60405180910390f35b610339600480360381019061033491906125f3565b6108ef565b604051610346919061262f565b60405180910390f35b6103696004803603810190610364919061264a565b61090f565b005b610373610931565b60405161038091906126a6565b60405180910390f35b61039161093a565b60405161039e919061262f565b60405180910390f35b6103c160048036038101906103bc919061264a565b610949565b005b6103dd60048036038101906103d891906126c1565b6109c4565b005b6103f960048036038101906103f49190612500565b6109ff565b005b610403610b8a565b6040516104109190612372565b60405180910390f35b610421610b9d565b60405161042e919061254f565b60405180910390f35b610451600480360381019061044c91906126c1565b610ba3565b005b61045b610bde565b604051610468919061241d565b60405180910390f35b610479610c6c565b604051610486919061254f565b60405180910390f35b6104a960048036038101906104a491906126c1565b610c72565b6040516104b6919061254f565b60405180910390f35b6104d960048036038101906104d49190612475565b610cba565b005b6104e3610d16565b6040516104f0919061262f565b60405180910390f35b610501610d1d565b60405161050e919061241d565b60405180910390f35b610531600480360381019061052c91906126c1565b610dab565b60405161053e919061254f565b60405180910390f35b61054f610dbd565b60405161055c91906126fd565b60405180910390f35b61056d610de1565b005b610577610e0c565b60405161058a9796959493929190612811565b60405180910390f35b61059b610eb6565b6040516105a8919061254f565b60405180910390f35b6105cb60048036038101906105c6919061264a565b610ebc565b6040516105d89190612372565b60405180910390f35b6105e9610f27565b6040516105f6919061241d565b60405180910390f35b610607610fb9565b604051610614919061262f565b60405180910390f35b61063760048036038101906106329190612500565b610fc0565b6040516106449190612372565b60405180910390f35b610667600480360381019061066291906128c1565b610fe3565b005b61067161112b565b60405161067e919061262f565b60405180910390f35b6106a1600480360381019061069c919061264a565b61114f565b005b6106ab611171565b6040516106b8919061254f565b60405180910390f35b6106db60048036038101906106d69190612963565b611177565b6040516106e8919061254f565b60405180910390f35b61070b60048036038101906107069190612475565b6111fe565b005b61071561125a565b604051610722919061254f565b60405180910390f35b60007f7965db0b000000000000000000000000000000000000000000000000000000007bffffffffffffffffffffffffffffffffffffffffffffffffffffffff1916827bffffffffffffffffffffffffffffffffffffffffffffffffffffffff1916148061079e575061079d82611260565b5b9050919050565b6060600380546107b4906129d2565b80601f01602080910402602001604051908101604052809291908181526020018280546107e0906129d2565b801561082d5780601f106108025761010080835404028352916020019161082d565b820191906000526020600020905b81548152906001019060200180831161081057829003601f168201915b5050505050905090565b6000801b610844816112ca565b600a548210610888576040517f08c379a000000000000000000000000000000000000000000000000000000000815260040161087f90612a75565b60405180910390fd5b81600a819055505050565b60008061089e6112de565b90506108ab8185856112e6565b600191505092915050565b6000600254905090565b6000806108cb6112de565b90506108d88582856112f8565b6108e385858561138c565b60019150509392505050565b600060086000838152602001908152602001600020600101549050919050565b610918826108ef565b610921816112ca565b61092b8383611480565b50505050565b60006012905090565b6000610944611572565b905090565b6109516112de565b73ffffffffffffffffffffffffffffffffffffffff168173ffffffffffffffffffffffffffffffffffffffff16146109b5576040517f6697b23200000000000000000000000000000000000000000000000000000000815260040160405180910390fd5b6109bf8282611629565b505050565b6000801b6109d1816112ca565b6109fb7f9f2df0fed2c77648de5860a4cc508cd0818c85b8b8a1ab4ceeef8d981c8956a68361090f565b5050565b7f9f2df0fed2c77648de5860a4cc508cd0818c85b8b8a1ab4ceeef8d981c8956a6610a29816112ca565b6000610a336108b6565b90506000620186a06101f485610a499190612ac4565b610a539190612b35565b9050610a5f858561171c565b610a897f00000000000000000000000000000000000000000000000000000000000000008261171c565b42600d81905550600954818584610aa09190612b66565b610aaa9190612b66565b1115610aeb576040517f08c379a0000000000000000000000000000000000000000000000000000000008152600401610ae290612be6565b60405180910390fd5b600a548210610b83576000600d5442610b049190612c06565b9050600063bbf81e0082600b5486610b1c9190612ac4565b610b269190612ac4565b610b309190612b35565b9050808387610b3f9190612b66565b1115610b80576040517f08c379a0000000000000000000000000000000000000000000000000000000008152600401610b7790612c86565b60405180910390fd5b50505b5050505050565b600c60009054906101000a900460ff1681565b600b5481565b6000801b610bb0816112ca565b610bda7f9f2df0fed2c77648de5860a4cc508cd0818c85b8b8a1ab4ceeef8d981c8956a68361114f565b5050565b600e8054610beb906129d2565b80601f0160208091040260200160405190810160405280929190818152602001828054610c17906129d2565b8015610c645780601f10610c3957610100808354040283529160200191610c64565b820191906000526020600020905b815481529060010190602001808311610c4757829003601f168201915b505050505081565b6101f481565b60008060008373ffffffffffffffffffffffffffffffffffffffff1673ffffffffffffffffffffffffffffffffffffffff168152602001908152602001600020549050919050565b6000801b610cc7816112ca565b6009548210610d0b576040517f08c379a0000000000000000000000000000000000000000000000000000000008152600401610d0290612d18565b60405180910390fd5b816009819055505050565b6000801b81565b600f8054610d2a906129d2565b80601f0160208091040260200160405190810160405280929190818152602001828054610d56906129d2565b8015610da35780601f10610d7857610100808354040283529160200191610da3565b820191906000526020600020905b815481529060010190602001808311610d8657829003601f168201915b505050505081565b6000610db68261179e565b9050919050565b7f000000000000000000000000000000000000000000000000000000000000000081565b6000801b610dee816112ca565b6000600c60006101000a81548160ff02191690831515021790555050565b600060608060008060006060610e206117e7565b610e28611822565b46306000801b600067ffffffffffffffff811115610e4957610e48612d38565b5b604051908082528060200260200182016040528015610e775781602001602082028036833780820191505090505b507f0f00000000000000000000000000000000000000000000000000000000000000959493929190965096509650965096509650965090919293949596565b600d5481565b60006008600084815260200190815260200160002060000160008373ffffffffffffffffffffffffffffffffffffffff1673ffffffffffffffffffffffffffffffffffffffff16815260200190815260200160002060009054906101000a900460ff16905092915050565b606060048054610f36906129d2565b80601f0160208091040260200160405190810160405280929190818152602001828054610f62906129d2565b8015610faf5780601f10610f8457610100808354040283529160200191610faf565b820191906000526020600020905b815481529060010190602001808311610f9257829003601f168201915b5050505050905090565b6000801b81565b600080610fcb6112de565b9050610fd881858561138c565b600191505092915050565b8342111561102857836040517f6279130200000000000000000000000000000000000000000000000000000000815260040161101f919061254f565b60405180910390fd5b60007f6e71edae12b1b97f4d1f60370fef10105fa2faae0126114a169c64845d6126c98888886110578c61185d565b8960405160200161106d96959493929190612d67565b6040516020818303038152906040528051906020012090506000611090826118b4565b905060006110a0828787876118ce565b90508973ffffffffffffffffffffffffffffffffffffffff168173ffffffffffffffffffffffffffffffffffffffff161461111457808a6040517f4b800e4600000000000000000000000000000000000000000000000000000000815260040161110b929190612dc8565b60405180910390fd5b61111f8a8a8a6112e6565b50505050505050505050565b7f9f2df0fed2c77648de5860a4cc508cd0818c85b8b8a1ab4ceeef8d981c8956a681565b611158826108ef565b611161816112ca565b61116b8383611629565b50505050565b60095481565b6000600160008473ffffffffffffffffffffffffffffffffffffffff1673ffffffffffffffffffffffffffffffffffffffff16815260200190815260200160002060008373ffffffffffffffffffffffffffffffffffffffff1673ffffffffffffffffffffffffffffffffffffffff16815260200190815260200160002054905092915050565b6000801b61120b816112ca565b600b54821061124f576040517f08c379a000000000000000000000000000000000000000000000000000000000815260040161124690612e89565b60405180910390fd5b81600b819055505050565b600a5481565b60007f01ffc9a7000000000000000000000000000000000000000000000000000000007bffffffffffffffffffffffffffffffffffffffffffffffffffffffff1916827bffffffffffffffffffffffffffffffffffffffffffffffffffffffff1916149050919050565b6112db816112d66112de565b6118fe565b50565b600033905090565b6112f3838383600161194f565b505050565b60006113048484611177565b90507fffffffffffffffffffffffffffffffffffffffffffffffffffffffffffffffff81146113865781811015611376578281836040517ffb8f41b200000000000000000000000000000000000000000000000000000000815260040161136d93929190612ea9565b60405180910390fd5b6113858484848403600061194f565b5b50505050565b600073ffffffffffffffffffffffffffffffffffffffff168373ffffffffffffffffffffffffffffffffffffffff16036113fe5760006040517f96c6fd1e0000000000000000000000000000000000000000000000000000000081526004016113f591906126fd565b60405180910390fd5b600073ffffffffffffffffffffffffffffffffffffffff168273ffffffffffffffffffffffffffffffffffffffff16036114705760006040517fec442f0500000000000000000000000000000000000000000000000000000000815260040161146791906126fd565b60405180910390fd5b61147b838383611b26565b505050565b600061148c8383610ebc565b6115675760016008600085815260200190815260200160002060000160008473ffffffffffffffffffffffffffffffffffffffff1673ffffffffffffffffffffffffffffffffffffffff16815260200190815260200160002060006101000a81548160ff0219169083151502179055506115046112de565b73ffffffffffffffffffffffffffffffffffffffff168273ffffffffffffffffffffffffffffffffffffffff16847f2f8788117e7eff1d82e926ec794901d17c78024a50270940304540a733656f0d60405160405180910390a46001905061156c565b600090505b92915050565b60007f000000000000000000000000000000000000000000000000000000000000000073ffffffffffffffffffffffffffffffffffffffff163073ffffffffffffffffffffffffffffffffffffffff161480156115ee57507f000000000000000000000000000000000000000000000000000000000000000046145b1561161b577f00000000000000000000000000000000000000000000000000000000000000009050611626565b611623611c05565b90505b90565b60006116358383610ebc565b156117115760006008600085815260200190815260200160002060000160008473ffffffffffffffffffffffffffffffffffffffff1673ffffffffffffffffffffffffffffffffffffffff16815260200190815260200160002060006101000a81548160ff0219169083151502179055506116ae6112de565b73ffffffffffffffffffffffffffffffffffffffff168273ffffffffffffffffffffffffffffffffffffffff16847ff6391f5c32d9c69d2a47ea670b442974b53935d1edc7fd64eb21e047a839171b60405160405180910390a460019050611716565b600090505b92915050565b600073ffffffffffffffffffffffffffffffffffffffff168273ffffffffffffffffffffffffffffffffffffffff160361178e5760006040517fec442f0500000000000000000000000000000000000000000000000000000000815260040161178591906126fd565b60405180910390fd5b61179a60008383611b26565b5050565b6000600760008373ffffffffffffffffffffffffffffffffffffffff1673ffffffffffffffffffffffffffffffffffffffff168152602001908152602001600020549050919050565b606061181d60057f0000000000000000000000000000000000000000000000000000000000000000611c9b90919063ffffffff16565b905090565b606061185860067f0000000000000000000000000000000000000000000000000000000000000000611c9b90919063ffffffff16565b905090565b6000600760008373ffffffffffffffffffffffffffffffffffffffff1673ffffffffffffffffffffffffffffffffffffffff1681526020019081526020016000206000815480929190600101919050559050919050565b60006118c76118c1611572565b83611d4b565b9050919050565b6000806000806118e088888888611d8c565b9250925092506118f08282611e80565b829350505050949350505050565b6119088282610ebc565b61194b5780826040517fe2517d3f000000000000000000000000000000000000000000000000000000008152600401611942929190612ee0565b60405180910390fd5b5050565b600073ffffffffffffffffffffffffffffffffffffffff168473ffffffffffffffffffffffffffffffffffffffff16036119c15760006040517fe602df050000000000000000000000000000000000000000000000000000000081526004016119b891906126fd565b60405180910390fd5b600073ffffffffffffffffffffffffffffffffffffffff168373ffffffffffffffffffffffffffffffffffffffff1603611a335760006040517f94280d62000000000000000000000000000000000000000000000000000000008152600401611a2a91906126fd565b60405180910390fd5b81600160008673ffffffffffffffffffffffffffffffffffffffff1673ffffffffffffffffffffffffffffffffffffffff16815260200190815260200160002060008573ffffffffffffffffffffffffffffffffffffffff1673ffffffffffffffffffffffffffffffffffffffff168152602001908152602001600020819055508015611b20578273ffffffffffffffffffffffffffffffffffffffff168473ffffffffffffffffffffffffffffffffffffffff167f8c5be1e5ebec7d5bd14f71427d1e84f3dd0314c0f7b2291e5b200ac8c7c3b92584604051611b17919061254f565b60405180910390a35b50505050565b600c60009054906101000a900460ff1615611bf557600073ffffffffffffffffffffffffffffffffffffffff168373ffffffffffffffffffffffffffffffffffffffff161480611ba25750600073ffffffffffffffffffffffffffffffffffffffff168273ffffffffffffffffffffffffffffffffffffffff16145b80611bb557506000611bb383610c72565b115b611bf4576040517f08c379a0000000000000000000000000000000000000000000000000000000008152600401611beb90612f7b565b60405180910390fd5b5b611c00838383611fe4565b505050565b60007f8b73c3c69bb8fe3d512ecc4cf759cc79239f7b179b0ffacaa9a75d522b39400f7f00000000000000000000000000000000000000000000000000000000000000007f00000000000000000000000000000000000000000000000000000000000000004630604051602001611c80959493929190612f9b565b60405160208183030381529060405280519060200120905090565b606060ff60001b8314611cb857611cb183612209565b9050611d45565b818054611cc4906129d2565b80601f0160208091040260200160405190810160405280929190818152602001828054611cf0906129d2565b8015611d3d5780601f10611d1257610100808354040283529160200191611d3d565b820191906000526020600020905b815481529060010190602001808311611d2057829003601f168201915b505050505090505b92915050565b60006040517f190100000000000000000000000000000000000000000000000000000000000081528360028201528260228201526042812091505092915050565b60008060007f7fffffffffffffffffffffffffffffff5d576e7357a4501ddfe92f46681b20a08460001c1115611dcc576000600385925092509250611e76565b600060018888888860405160008152602001604052604051611df19493929190612fee565b6020604051602081039080840390855afa158015611e13573d6000803e3d6000fd5b505050602060405103519050600073ffffffffffffffffffffffffffffffffffffffff168173ffffffffffffffffffffffffffffffffffffffff1603611e6757600060016000801b93509350935050611e76565b8060008060001b935093509350505b9450945094915050565b60006003811115611e9457611e93613033565b5b826003811115611ea757611ea6613033565b5b0315611fe05760016003811115611ec157611ec0613033565b5b826003811115611ed457611ed3613033565b5b03611f0b576040517ff645eedf00000000000000000000000000000000000000000000000000000000815260040160405180910390fd5b60026003811115611f1f57611f1e613033565b5b826003811115611f3257611f31613033565b5b03611f77578060001c6040517ffce698f7000000000000000000000000000000000000000000000000000000008152600401611f6e919061254f565b60405180910390fd5b600380811115611f8a57611f89613033565b5b826003811115611f9d57611f9c613033565b5b03611fdf57806040517fd78bce0c000000000000000000000000000000000000000000000000000000008152600401611fd6919061262f565b60405180910390fd5b5b5050565b600073ffffffffffffffffffffffffffffffffffffffff168373ffffffffffffffffffffffffffffffffffffffff160361203657806002600082825461202a9190612b66565b92505081905550612109565b60008060008573ffffffffffffffffffffffffffffffffffffffff1673ffffffffffffffffffffffffffffffffffffffff168152602001908152602001600020549050818110156120c2578381836040517fe450d38c0000000000000000000000000000000000000000000000000000000081526004016120b993929190612ea9565b60405180910390fd5b8181036000808673ffffffffffffffffffffffffffffffffffffffff1673ffffffffffffffffffffffffffffffffffffffff16815260200190815260200160002081905550505b600073ffffffffffffffffffffffffffffffffffffffff168273ffffffffffffffffffffffffffffffffffffffff1603612152578060026000828254039250508190555061219f565b806000808473ffffffffffffffffffffffffffffffffffffffff1673ffffffffffffffffffffffffffffffffffffffff168152602001908152602001600020600082825401925050819055505b8173ffffffffffffffffffffffffffffffffffffffff168373ffffffffffffffffffffffffffffffffffffffff167fddf252ad1be2c89b69c2b068fc378daa952ba7f163c4a11628f55a4df523b3ef836040516121fc919061254f565b60405180910390a3505050565b606060006122168361227d565b90506000602067ffffffffffffffff81111561223557612234612d38565b5b6040519080825280601f01601f1916602001820160405280156122675781602001600182028036833780820191505090505b5090508181528360208201528092505050919050565b60008060ff8360001c169050601f8111156122c4576040517fb3512b0c00000000000000000000000000000000000000000000000000000000815260040160405180910390fd5b80915050919050565b600080fd5b60007fffffffff0000000000000000000000000000000000000000000000000000000082169050919050565b612307816122d2565b811461231257600080fd5b50565b600081359050612324816122fe565b92915050565b6000602082840312156123405761233f6122cd565b5b600061234e84828501612315565b91505092915050565b60008115159050919050565b61236c81612357565b82525050565b60006020820190506123876000830184612363565b92915050565b600081519050919050565b600082825260208201905092915050565b60005b838110156123c75780820151818401526020810190506123ac565b60008484015250505050565b6000601f19601f8301169050919050565b60006123ef8261238d565b6123f98185612398565b93506124098185602086016123a9565b612412816123d3565b840191505092915050565b6000602082019050818103600083015261243781846123e4565b905092915050565b6000819050919050565b6124528161243f565b811461245d57600080fd5b50565b60008135905061246f81612449565b92915050565b60006020828403121561248b5761248a6122cd565b5b600061249984828501612460565b91505092915050565b600073ffffffffffffffffffffffffffffffffffffffff82169050919050565b60006124cd826124a2565b9050919050565b6124dd816124c2565b81146124e857600080fd5b50565b6000813590506124fa816124d4565b92915050565b60008060408385031215612517576125166122cd565b5b6000612525858286016124eb565b925050602061253685828601612460565b9150509250929050565b6125498161243f565b82525050565b60006020820190506125646000830184612540565b92915050565b600080600060608486031215612583576125826122cd565b5b6000612591868287016124eb565b93505060206125a2868287016124eb565b92505060406125b386828701612460565b9150509250925092565b6000819050919050565b6125d0816125bd565b81146125db57600080fd5b50565b6000813590506125ed816125c7565b92915050565b600060208284031215612609576126086122cd565b5b6000612617848285016125de565b91505092915050565b612629816125bd565b82525050565b60006020820190506126446000830184612620565b92915050565b60008060408385031215612661576126606122cd565b5b600061266f858286016125de565b9250506020612680858286016124eb565b9150509250929050565b600060ff82169050919050565b6126a08161268a565b82525050565b60006020820190506126bb6000830184612697565b92915050565b6000602082840312156126d7576126d66122cd565b5b60006126e5848285016124eb565b91505092915050565b6126f7816124c2565b82525050565b600060208201905061271260008301846126ee565b92915050565b60007fff0000000000000000000000000000000000000000000000000000000000000082169050919050565b61274d81612718565b82525050565b600081519050919050565b600082825260208201905092915050565b6000819050602082019050919050565b6127888161243f565b82525050565b600061279a838361277f565b60208301905092915050565b6000602082019050919050565b60006127be82612753565b6127c8818561275e565b93506127d38361276f565b8060005b838110156128045781516127eb888261278e565b97506127f6836127a6565b9250506001810190506127d7565b5085935050505092915050565b600060e082019050612826600083018a612744565b818103602083015261283881896123e4565b9050818103604083015261284c81886123e4565b905061285b6060830187612540565b61286860808301866126ee565b61287560a0830185612620565b81810360c083015261288781846127b3565b905098975050505050505050565b61289e8161268a565b81146128a957600080fd5b50565b6000813590506128bb81612895565b92915050565b600080600080600080600060e0888a0312156128e0576128df6122cd565b5b60006128ee8a828b016124eb565b97505060206128ff8a828b016124eb565b96505060406129108a828b01612460565b95505060606129218a828b01612460565b94505060806129328a828b016128ac565b93505060a06129438a828b016125de565b92505060c06129548a828b016125de565b91505092959891949750929550565b6000806040838503121561297a576129796122cd565b5b6000612988858286016124eb565b9250506020612999858286016124eb565b9150509250929050565b7f4e487b7100000000000000000000000000000000000000000000000000000000600052602260045260246000fd5b600060028204905060018216806129ea57607f821691505b6020821081036129fd576129fc6129a3565b5b50919050565b7f4e6577207468726573686f6c6420737570706c79206d757374206265206c657360008201527f73207468616e2063757272656e74207468726573686f6c6420737570706c7900602082015250565b6000612a5f603f83612398565b9150612a6a82612a03565b604082019050919050565b60006020820190508181036000830152612a8e81612a52565b9050919050565b7f4e487b7100000000000000000000000000000000000000000000000000000000600052601160045260246000fd5b6000612acf8261243f565b9150612ada8361243f565b9250828202612ae88161243f565b91508282048414831517612aff57612afe612a95565b5b5092915050565b7f4e487b7100000000000000000000000000000000000000000000000000000000600052601260045260246000fd5b6000612b408261243f565b9150612b4b8361243f565b925082612b5b57612b5a612b06565b5b828204905092915050565b6000612b718261243f565b9150612b7c8361243f565b9250828201905080821115612b9457612b93612a95565b5b92915050565b7f45786365656473206d6178696d756d20737570706c7900000000000000000000600082015250565b6000612bd0601683612398565b9150612bdb82612b9a565b602082019050919050565b60006020820190508181036000830152612bff81612bc3565b9050919050565b6000612c118261243f565b9150612c1c8361243f565b9250828203905081811115612c3457612c33612a95565b5b92915050565b7f45786365656473206d6178696d756d20657870616e73696f6e20726174650000600082015250565b6000612c70601e83612398565b9150612c7b82612c3a565b602082019050919050565b60006020820190508181036000830152612c9f81612c63565b9050919050565b7f4e6577206d617820737570706c79206d757374206265206c657373207468616e60008201527f2063757272656e74206d617820737570706c7900000000000000000000000000602082015250565b6000612d02603383612398565b9150612d0d82612ca6565b604082019050919050565b60006020820190508181036000830152612d3181612cf5565b9050919050565b7f4e487b7100000000000000000000000000000000000000000000000000000000600052604160045260246000fd5b600060c082019050612d7c6000830189612620565b612d8960208301886126ee565b612d9660408301876126ee565b612da36060830186612540565b612db06080830185612540565b612dbd60a0830184612540565b979650505050505050565b6000604082019050612ddd60008301856126ee565b612dea60208301846126ee565b9392505050565b7f4e6577206d617820657870616e73696f6e2072617465206d757374206265206c60008201527f657373207468616e2063757272656e74206d617820657870616e73696f6e207260208201527f6174650000000000000000000000000000000000000000000000000000000000604082015250565b6000612e73604383612398565b9150612e7e82612df1565b606082019050919050565b60006020820190508181036000830152612ea281612e66565b9050919050565b6000606082019050612ebe60008301866126ee565b612ecb6020830185612540565b612ed86040830184612540565b949350505050565b6000604082019050612ef560008301856126ee565b612f026020830184612620565b9392505050565b7f5472616e73666572207265737472696374656420746f206578697374696e672060008201527f746f6b656e20686f6c6465727300000000000000000000000000000000000000602082015250565b6000612f65602d83612398565b9150612f7082612f09565b604082019050919050565b60006020820190508181036000830152612f9481612f58565b9050919050565b600060a082019050612fb06000830188612620565b612fbd6020830187612620565b612fca6040830186612620565b612fd76060830185612540565b612fe460808301846126ee565b9695505050505050565b60006080820190506130036000830187612620565b6130106020830186612697565b61301d6040830185612620565b61302a6060830184612620565b95945050505050565b7f4e487b7100000000000000000000000000000000000000000000000000000000600052602160045260246000fdfea2646970667358221220f00b10514571d19e56da615bf2b400bf4610a5e73035179358a9b37985f6615164736f6c634300081c0033",
  "linkReferences": {},
  "deployedLinkReferences": {}
}